{
  "contractName": "Lending",
  "abi": [
    {
      "inputs": [
        {
          "internalType": "uint256",
          "name": "",
          "type": "uint256"
        }
      ],
      "name": "loanToLender",
      "outputs": [
        {
          "internalType": "address",
          "name": "",
          "type": "address"
        }
      ],
      "stateMutability": "view",
      "type": "function",
      "constant": true
    },
    {
      "inputs": [
        {
          "internalType": "uint256",
          "name": "",
          "type": "uint256"
        }
      ],
      "name": "loans",
      "outputs": [
        {
          "internalType": "uint256",
          "name": "loanId",
          "type": "uint256"
        },
        {
          "internalType": "address",
          "name": "lender",
          "type": "address"
        },
        {
          "internalType": "uint256",
          "name": "loanAmount",
          "type": "uint256"
        },
        {
          "internalType": "uint256",
          "name": "interestRate",
          "type": "uint256"
        },
        {
          "internalType": "uint256",
          "name": "proposalId",
          "type": "uint256"
        },
        {
          "internalType": "uint256",
          "name": "time",
          "type": "uint256"
        },
        {
          "internalType": "enum Lending.LoanState",
          "name": "state",
          "type": "uint8"
        }
      ],
      "stateMutability": "view",
      "type": "function",
      "constant": true
    },
    {
      "inputs": [
        {
          "internalType": "uint256",
          "name": "",
          "type": "uint256"
        }
      ],
      "name": "potential_lenders",
      "outputs": [
        {
          "internalType": "uint256",
          "name": "loanId",
          "type": "uint256"
        },
        {
          "internalType": "address",
          "name": "lender",
          "type": "address"
        },
        {
          "internalType": "uint256",
          "name": "loanAmount",
          "type": "uint256"
        },
        {
          "internalType": "uint256",
          "name": "interestRate",
          "type": "uint256"
        },
        {
          "internalType": "uint256",
          "name": "proposalId",
          "type": "uint256"
        },
        {
          "internalType": "uint256",
          "name": "time",
          "type": "uint256"
        },
        {
          "internalType": "enum Lending.LoanState",
          "name": "state",
          "type": "uint8"
        }
      ],
      "stateMutability": "view",
      "type": "function",
      "constant": true
    },
    {
      "inputs": [
        {
          "internalType": "uint256",
          "name": "",
          "type": "uint256"
        }
      ],
      "name": "proposalToBorrower",
      "outputs": [
        {
          "internalType": "address",
          "name": "",
          "type": "address"
        }
      ],
      "stateMutability": "view",
      "type": "function",
      "constant": true
    },
    {
      "inputs": [
        {
          "internalType": "uint256",
          "name": "",
          "type": "uint256"
        }
      ],
      "name": "proposals",
      "outputs": [
        {
          "internalType": "uint256",
          "name": "proposalId",
          "type": "uint256"
        },
        {
          "internalType": "address",
          "name": "borrower",
          "type": "address"
        },
        {
          "internalType": "uint256",
          "name": "amount",
          "type": "uint256"
        },
        {
          "internalType": "uint256",
          "name": "time",
          "type": "uint256"
        },
        {
          "internalType": "string",
          "name": "mortgage",
          "type": "string"
        },
        {
          "internalType": "enum Lending.ProposalState",
          "name": "state",
          "type": "uint8"
        },
        {
          "internalType": "bool",
          "name": "sendMoney",
          "type": "bool"
        }
      ],
      "stateMutability": "view",
      "type": "function",
      "constant": true
    },
    {
      "inputs": [
        {
          "internalType": "uint256",
          "name": "_loanAmount",
          "type": "uint256"
        },
        {
          "internalType": "uint256",
          "name": "_time",
          "type": "uint256"
        },
        {
          "internalType": "string",
          "name": "_mortgage",
          "type": "string"
        }
      ],
      "name": "createProposal",
      "outputs": [],
      "stateMutability": "nonpayable",
      "type": "function"
    },
    {
      "inputs": [
        {
          "internalType": "uint256",
          "name": "_loanAmount",
          "type": "uint256"
        },
        {
          "internalType": "uint256",
          "name": "_interestRate",
          "type": "uint256"
        },
        {
          "internalType": "uint256",
          "name": "_proposalId",
          "type": "uint256"
        }
      ],
      "name": "acceptProposal",
      "outputs": [],
      "stateMutability": "nonpayable",
      "type": "function"
    },
    {
      "inputs": [],
      "name": "sendETHtoContract",
      "outputs": [],
      "stateMutability": "payable",
      "type": "function",
      "payable": true
    },
    {
      "inputs": [],
      "name": "getAllPotentialLenders",
      "outputs": [
        {
          "components": [
            {
              "internalType": "uint256",
              "name": "loanId",
              "type": "uint256"
            },
            {
              "internalType": "address",
              "name": "lender",
              "type": "address"
            },
            {
              "internalType": "uint256",
              "name": "loanAmount",
              "type": "uint256"
            },
            {
              "internalType": "uint256",
              "name": "interestRate",
              "type": "uint256"
            },
            {
              "internalType": "uint256",
              "name": "proposalId",
              "type": "uint256"
            },
            {
              "internalType": "uint256",
              "name": "time",
              "type": "uint256"
            },
            {
              "internalType": "enum Lending.LoanState",
              "name": "state",
              "type": "uint8"
            }
          ],
          "internalType": "struct Lending.Loan[]",
          "name": "",
          "type": "tuple[]"
        }
      ],
      "stateMutability": "view",
      "type": "function",
      "constant": true
    },
    {
      "inputs": [],
      "name": "getAllProposals",
      "outputs": [
        {
          "components": [
            {
              "internalType": "uint256",
              "name": "proposalId",
              "type": "uint256"
            },
            {
              "internalType": "address",
              "name": "borrower",
              "type": "address"
            },
            {
              "internalType": "uint256",
              "name": "amount",
              "type": "uint256"
            },
            {
              "internalType": "uint256",
              "name": "time",
              "type": "uint256"
            },
            {
              "internalType": "string",
              "name": "mortgage",
              "type": "string"
            },
            {
              "internalType": "enum Lending.ProposalState",
              "name": "state",
              "type": "uint8"
            },
            {
              "internalType": "bool",
              "name": "sendMoney",
              "type": "bool"
            }
          ],
          "internalType": "struct Lending.Proposal[]",
          "name": "",
          "type": "tuple[]"
        }
      ],
      "stateMutability": "view",
      "type": "function",
      "constant": true
    },
    {
      "inputs": [],
      "name": "getAllLoans",
      "outputs": [
        {
          "components": [
            {
              "internalType": "uint256",
              "name": "loanId",
              "type": "uint256"
            },
            {
              "internalType": "address",
              "name": "lender",
              "type": "address"
            },
            {
              "internalType": "uint256",
              "name": "loanAmount",
              "type": "uint256"
            },
            {
              "internalType": "uint256",
              "name": "interestRate",
              "type": "uint256"
            },
            {
              "internalType": "uint256",
              "name": "proposalId",
              "type": "uint256"
            },
            {
              "internalType": "uint256",
              "name": "time",
              "type": "uint256"
            },
            {
              "internalType": "enum Lending.LoanState",
              "name": "state",
              "type": "uint8"
            }
          ],
          "internalType": "struct Lending.Loan[]",
          "name": "",
          "type": "tuple[]"
        }
      ],
      "stateMutability": "view",
      "type": "function",
      "constant": true
    },
    {
      "inputs": [
        {
          "internalType": "uint256",
          "name": "_loanId",
          "type": "uint256"
        },
        {
          "internalType": "uint256",
          "name": "_proposalId",
          "type": "uint256"
        }
      ],
      "name": "acceptLender",
      "outputs": [],
      "stateMutability": "nonpayable",
      "type": "function"
    },
    {
      "inputs": [
        {
          "internalType": "uint256",
          "name": "_loanId",
          "type": "uint256"
        }
      ],
      "name": "loanPaid",
      "outputs": [],
      "stateMutability": "nonpayable",
      "type": "function"
    }
  ],
  "bytecode": "0x608060405234801561001057600080fd5b50611a7c806100206000396000f3fe6080604052600436106100c25760003560e01c8063a5bfd16a1161007f578063c54f3eae11610059578063c54f3eae14610279578063cceb68f5146102a2578063e1ec3c68146102cd578063e8aaf98814610310576100c2565b8063a5bfd16a146101e8578063b99c56c514610213578063bc254c0014610250576100c2565b80630133e1d8146100c7578063013cf08b146100f0578063424959371461013357806346df13471461013d5780637028122d146101805780639dfe47cd146101bd575b600080fd5b3480156100d357600080fd5b506100ee60048036038101906100e9919061111c565b610339565b005b3480156100fc57600080fd5b506101176004803603810190610112919061116f565b61051b565b60405161012a9796959493929190611317565b60405180910390f35b61013b61062f565b005b34801561014957600080fd5b50610164600480360381019061015f919061116f565b610631565b60405161017797969594939291906113d5565b60405180910390f35b34801561018c57600080fd5b506101a760048036038101906101a2919061116f565b6106b0565b6040516101b49190611444565b60405180910390f35b3480156101c957600080fd5b506101d26106e3565b6040516101df91906115c9565b60405180910390f35b3480156101f457600080fd5b506101fd610805565b60405161020a91906115c9565b60405180910390f35b34801561021f57600080fd5b5061023a6004803603810190610235919061116f565b610927565b6040516102479190611444565b60405180910390f35b34801561025c57600080fd5b50610277600480360381019061027291906115eb565b61095a565b005b34801561028557600080fd5b506102a0600480360381019061029b919061116f565b610be6565b005b3480156102ae57600080fd5b506102b7610c37565b6040516102c491906117f1565b60405180910390f35b3480156102d957600080fd5b506102f460048036038101906102ef919061116f565b610df2565b60405161030797969594939291906113d5565b60405180910390f35b34801561031c57600080fd5b5061033760048036038101906103329190611948565b610e71565b005b6000600180549050905060016040518060e001604052808381526020013373ffffffffffffffffffffffffffffffffffffffff1681526020018681526020018581526020018481526020014281526020016002600481111561039e5761039d611285565b5b81525090806001815401808255809150506001900390600052602060002090600702016000909190919091506000820151816000015560208201518160010160006101000a81548173ffffffffffffffffffffffffffffffffffffffff021916908373ffffffffffffffffffffffffffffffffffffffff16021790555060408201518160020155606082015181600301556080820151816004015560a0820151816005015560c08201518160060160006101000a81548160ff0219169083600481111561046e5761046d611285565b5b02179055505050336004600083815260200190815260200160002060006101000a81548173ffffffffffffffffffffffffffffffffffffffff021916908373ffffffffffffffffffffffffffffffffffffffff1602179055506001600083815481106104dd576104dc6119b7565b5b906000526020600020906006020160050160006101000a81548160ff021916908360028111156105105761050f611285565b5b021790555050505050565b6000818154811061052b57600080fd5b90600052602060002090600602016000915090508060000154908060010160009054906101000a900473ffffffffffffffffffffffffffffffffffffffff169080600201549080600301549080600401805461058690611a15565b80601f01602080910402602001604051908101604052809291908181526020018280546105b290611a15565b80156105ff5780601f106105d4576101008083540402835291602001916105ff565b820191906000526020600020905b8154815290600101906020018083116105e257829003601f168201915b5050505050908060050160009054906101000a900460ff16908060050160019054906101000a900460ff16905087565b565b6001818154811061064157600080fd5b90600052602060002090600702016000915090508060000154908060010160009054906101000a900473ffffffffffffffffffffffffffffffffffffffff16908060020154908060030154908060040154908060050154908060060160009054906101000a900460ff16905087565b60046020528060005260406000206000915054906101000a900473ffffffffffffffffffffffffffffffffffffffff1681565b60606001805480602002602001604051908101604052809291908181526020016000905b828210156107fc57838290600052602060002090600702016040518060e0016040529081600082015481526020016001820160009054906101000a900473ffffffffffffffffffffffffffffffffffffffff1673ffffffffffffffffffffffffffffffffffffffff1673ffffffffffffffffffffffffffffffffffffffff168152602001600282015481526020016003820154815260200160048201548152602001600582015481526020016006820160009054906101000a900460ff1660048111156107d7576107d6611285565b5b60048111156107e9576107e8611285565b5b8152505081526020019060010190610707565b50505050905090565b60606002805480602002602001604051908101604052809291908181526020016000905b8282101561091e57838290600052602060002090600702016040518060e0016040529081600082015481526020016001820160009054906101000a900473ffffffffffffffffffffffffffffffffffffffff1673ffffffffffffffffffffffffffffffffffffffff1673ffffffffffffffffffffffffffffffffffffffff168152602001600282015481526020016003820154815260200160048201548152602001600582015481526020016006820160009054906101000a900460ff1660048111156108f9576108f8611285565b5b600481111561090b5761090a611285565b5b8152505081526020019060010190610829565b50505050905090565b60036020528060005260406000206000915054906101000a900473ffffffffffffffffffffffffffffffffffffffff1681565b60026040518060e001604052808481526020016004600086815260200190815260200160002060009054906101000a900473ffffffffffffffffffffffffffffffffffffffff1673ffffffffffffffffffffffffffffffffffffffff168152602001600185815481106109d0576109cf6119b7565b5b9060005260206000209060070201600201548152602001600185815481106109fb576109fa6119b7565b5b906000526020600020906007020160030154815260200183815260200142815260200160036004811115610a3257610a31611285565b5b81525090806001815401808255809150506001900390600052602060002090600702016000909190919091506000820151816000015560208201518160010160006101000a81548173ffffffffffffffffffffffffffffffffffffffff021916908373ffffffffffffffffffffffffffffffffffffffff16021790555060408201518160020155606082015181600301556080820151816004015560a0820151816005015560c08201518160060160006101000a81548160ff02191690836004811115610b0257610b01611285565b5b021790555050506000808281548110610b1e57610b1d6119b7565b5b906000526020600020906006020160050160006101000a81548160ff02191690836002811115610b5157610b50611285565b5b0217905550600360018381548110610b6c57610b6b6119b7565b5b906000526020600020906007020160060160006101000a81548160ff02191690836004811115610b9f57610b9e611285565b5b0217905550600160008281548110610bba57610bb96119b7565b5b906000526020600020906006020160050160016101000a81548160ff0219169083151502179055505050565b600060018281548110610bfc57610bfb6119b7565b5b906000526020600020906007020160060160006101000a81548160ff02191690836004811115610c2f57610c2e611285565b5b021790555050565b60606000805480602002602001604051908101604052809291908181526020016000905b82821015610de957838290600052602060002090600602016040518060e0016040529081600082015481526020016001820160009054906101000a900473ffffffffffffffffffffffffffffffffffffffff1673ffffffffffffffffffffffffffffffffffffffff1673ffffffffffffffffffffffffffffffffffffffff1681526020016002820154815260200160038201548152602001600482018054610d0290611a15565b80601f0160208091040260200160405190810160405280929190818152602001828054610d2e90611a15565b8015610d7b5780601f10610d5057610100808354040283529160200191610d7b565b820191906000526020600020905b815481529060010190602001808311610d5e57829003601f168201915b505050505081526020016005820160009054906101000a900460ff166002811115610da957610da8611285565b5b6002811115610dbb57610dba611285565b5b81526020016005820160019054906101000a900460ff16151515158152505081526020019060010190610c5b565b50505050905090565b60028181548110610e0257600080fd5b90600052602060002090600702016000915090508060000154908060010160009054906101000a900473ffffffffffffffffffffffffffffffffffffffff16908060020154908060030154908060040154908060050154908060060160009054906101000a900460ff16905087565b60008080549050905060006040518060e001604052808381526020013373ffffffffffffffffffffffffffffffffffffffff168152602001868152602001858152602001848152602001600280811115610ece57610ecd611285565b5b81526020016000151581525090806001815401808255809150506001900390600052602060002090600602016000909190919091506000820151816000015560208201518160010160006101000a81548173ffffffffffffffffffffffffffffffffffffffff021916908373ffffffffffffffffffffffffffffffffffffffff16021790555060408201518160020155606082015181600301556080820151816004019080519060200190610f8492919061102f565b5060a08201518160050160006101000a81548160ff02191690836002811115610fb057610faf611285565b5b021790555060c08201518160050160016101000a81548160ff0219169083151502179055505050336003600083815260200190815260200160002060006101000a81548173ffffffffffffffffffffffffffffffffffffffff021916908373ffffffffffffffffffffffffffffffffffffffff16021790555050505050565b82805461103b90611a15565b90600052602060002090601f01602090048101928261105d57600085556110a4565b82601f1061107657805160ff19168380011785556110a4565b828001600101855582156110a4579182015b828111156110a3578251825591602001919060010190611088565b5b5090506110b191906110b5565b5090565b5b808211156110ce5760008160009055506001016110b6565b5090565b6000604051905090565b600080fd5b600080fd5b6000819050919050565b6110f9816110e6565b811461110457600080fd5b50565b600081359050611116816110f0565b92915050565b600080600060608486031215611135576111346110dc565b5b600061114386828701611107565b935050602061115486828701611107565b925050604061116586828701611107565b9150509250925092565b600060208284031215611185576111846110dc565b5b600061119384828501611107565b91505092915050565b6111a5816110e6565b82525050565b600073ffffffffffffffffffffffffffffffffffffffff82169050919050565b60006111d6826111ab565b9050919050565b6111e6816111cb565b82525050565b600081519050919050565b600082825260208201905092915050565b60005b8381101561122657808201518184015260208101905061120b565b83811115611235576000848401525b50505050565b6000601f19601f8301169050919050565b6000611257826111ec565b61126181856111f7565b9350611271818560208601611208565b61127a8161123b565b840191505092915050565b7f4e487b7100000000000000000000000000000000000000000000000000000000600052602160045260246000fd5b600381106112c5576112c4611285565b5b50565b60008190506112d6826112b4565b919050565b60006112e6826112c8565b9050919050565b6112f6816112db565b82525050565b60008115159050919050565b611311816112fc565b82525050565b600060e08201905061132c600083018a61119c565b61133960208301896111dd565b611346604083018861119c565b611353606083018761119c565b8181036080830152611365818661124c565b905061137460a08301856112ed565b61138160c0830184611308565b98975050505050505050565b6005811061139e5761139d611285565b5b50565b60008190506113af8261138d565b919050565b60006113bf826113a1565b9050919050565b6113cf816113b4565b82525050565b600060e0820190506113ea600083018a61119c565b6113f760208301896111dd565b611404604083018861119c565b611411606083018761119c565b61141e608083018661119c565b61142b60a083018561119c565b61143860c08301846113c6565b98975050505050505050565b600060208201905061145960008301846111dd565b92915050565b600081519050919050565b600082825260208201905092915050565b6000819050602082019050919050565b611494816110e6565b82525050565b6114a3816111cb565b82525050565b6114b2816113b4565b82525050565b60e0820160008201516114ce600085018261148b565b5060208201516114e1602085018261149a565b5060408201516114f4604085018261148b565b506060820151611507606085018261148b565b50608082015161151a608085018261148b565b5060a082015161152d60a085018261148b565b5060c082015161154060c08501826114a9565b50505050565b600061155283836114b8565b60e08301905092915050565b6000602082019050919050565b60006115768261145f565b611580818561146a565b935061158b8361147b565b8060005b838110156115bc5781516115a38882611546565b97506115ae8361155e565b92505060018101905061158f565b5085935050505092915050565b600060208201905081810360008301526115e3818461156b565b905092915050565b60008060408385031215611602576116016110dc565b5b600061161085828601611107565b925050602061162185828601611107565b9150509250929050565b600081519050919050565b600082825260208201905092915050565b6000819050602082019050919050565b600082825260208201905092915050565b6000611673826111ec565b61167d8185611657565b935061168d818560208601611208565b6116968161123b565b840191505092915050565b6116aa816112db565b82525050565b6116b9816112fc565b82525050565b600060e0830160008301516116d7600086018261148b565b5060208301516116ea602086018261149a565b5060408301516116fd604086018261148b565b506060830151611710606086018261148b565b50608083015184820360808601526117288282611668565b91505060a083015161173d60a08601826116a1565b5060c083015161175060c08601826116b0565b508091505092915050565b600061176783836116bf565b905092915050565b6000602082019050919050565b60006117878261162b565b6117918185611636565b9350836020820285016117a385611647565b8060005b858110156117df57848403895281516117c0858261175b565b94506117cb8361176f565b925060208a019950506001810190506117a7565b50829750879550505050505092915050565b6000602082019050818103600083015261180b818461177c565b905092915050565b600080fd5b600080fd5b7f4e487b7100000000000000000000000000000000000000000000000000000000600052604160045260246000fd5b6118558261123b565b810181811067ffffffffffffffff821117156118745761187361181d565b5b80604052505050565b60006118876110d2565b9050611893828261184c565b919050565b600067ffffffffffffffff8211156118b3576118b261181d565b5b6118bc8261123b565b9050602081019050919050565b82818337600083830152505050565b60006118eb6118e684611898565b61187d565b90508281526020810184848401111561190757611906611818565b5b6119128482856118c9565b509392505050565b600082601f83011261192f5761192e611813565b5b813561193f8482602086016118d8565b91505092915050565b600080600060608486031215611961576119606110dc565b5b600061196f86828701611107565b935050602061198086828701611107565b925050604084013567ffffffffffffffff8111156119a1576119a06110e1565b5b6119ad8682870161191a565b9150509250925092565b7f4e487b7100000000000000000000000000000000000000000000000000000000600052603260045260246000fd5b7f4e487b7100000000000000000000000000000000000000000000000000000000600052602260045260246000fd5b60006002820490506001821680611a2d57607f821691505b602082108103611a4057611a3f6119e6565b5b5091905056fea26469706673582212207266f64293068aaf1ec791e95fe80f86cc68532e39e705f060d91bca8cda6f4c64736f6c634300080d0033",
  "immutableReferences": {},
  "source": "// SPDX-License-Identifier: MIT\npragma solidity ^0.8.0;\npragma abicoder v2;\n\nimport \"@openzeppelin/contracts/utils/math/SafeMath.sol\";\n\ncontract Lending {\n    using SafeMath for uint256;\n    using SafeMath for uint256;\n\n    enum ProposalState {\n        ACCEPTED,\n        ACCEPTING,\n        WAITING\n    }\n    enum LoanState {\n        REPAID,\n        ACCEPTED,\n        WAITING,\n        PAID,\n        FAILED\n    }\n\n    // borrower\n    struct Proposal {\n        uint256 proposalId;\n        address borrower;\n        uint256 amount;\n        uint256 time;\n        string mortgage;\n        ProposalState state;\n        bool sendMoney;\n    }\n\n    struct Loan {\n        uint256 loanId;\n        address lender;\n        uint256 loanAmount;\n        uint256 interestRate;\n        uint256 proposalId; // not sure?\n        uint256 time;\n        LoanState state;\n    }\n\n    Proposal[] public proposals;\n    Loan[] public potential_lenders;\n    Loan[] public loans;\n\n    mapping(uint256 => address) public proposalToBorrower;\n    mapping(uint256 => address) public loanToLender;\n\n    function createProposal(\n        uint256 _loanAmount,\n        uint256 _time,\n        string memory _mortgage\n    ) public {\n        //change loanAmount to amount?\n        uint256 _proposalId = proposals.length;\n        proposals.push(\n            Proposal(\n                _proposalId,\n                msg.sender,\n                _loanAmount,\n                _time,\n                _mortgage,\n                ProposalState.WAITING,\n                false\n            )\n        );\n\n        proposalToBorrower[_proposalId] = msg.sender;\n    }\n\n    function acceptProposal(\n        uint256 _loanAmount,\n        uint256 _interestRate,\n        uint256 _proposalId\n    ) public {\n        uint256 _loanId = potential_lenders.length;\n        potential_lenders.push(\n            Loan(\n                _loanId,\n                msg.sender,\n                _loanAmount,\n                _interestRate,\n                _proposalId,\n                block.timestamp,\n                LoanState.WAITING\n            )\n        );\n        loanToLender[_loanId] = msg.sender;\n        proposals[_proposalId].state = ProposalState.ACCEPTING;\n    }\n\n    function sendETHtoContract() public payable {\n        //msg.value is the amount of wei that the msg.sender sent with this transaction.\n        //If the transaction doesn't fail, then the contract now has this ETH.\n    }\n\n    function getAllPotentialLenders() public view returns (Loan[] memory) {\n        return potential_lenders;\n    }\n\n    function getAllProposals() public view returns (Proposal[] memory) {\n        return proposals;\n    }\n\n    function getAllLoans() public view returns (Loan[] memory) {\n        return loans;\n    }\n\n    function acceptLender(uint256 _loanId, uint256 _proposalId) public {\n        loans.push(\n            Loan(\n                _loanId,\n                loanToLender[_loanId],\n                potential_lenders[_loanId].loanAmount,\n                potential_lenders[_loanId].interestRate,\n                _proposalId,\n                block.timestamp,\n                LoanState.PAID\n            )\n        );\n\n        proposals[_proposalId].state = ProposalState.ACCEPTED;\n\n        potential_lenders[_loanId].state = LoanState.PAID;\n\n        proposals[_proposalId].sendMoney = true;\n\n        // (bool success, ) = msg.sender.call.value(\n        //     potential_lenders[_loanId].loanAmount\n        // )(\"\");\n        // require(success, \"Transfer failed.\");\n    }\n\n    // function repayAmount(uint256 _loanId) public view returns (uint256) {\n    //     if (loans[_loanId].state == LoanState.ACCEPTED) {\n    //         uint256 startTime = loans[_loanId].time;\n    //         uint256 finalAmount = 0;\n    //         uint256 principalValue = loans[_loanId].loanAmount;\n    //         uint256 paymentTime = block.timestamp;\n    //         uint256 interestRate = loans[_loanId].interestRate;\n    //         uint256 loanTime = paymentTime - startTime;\n\n    //         uint256 interest = (\n    //             principalValue.mul(interestRate).mul(loanTime)\n    //         ) / (365 * 24 * 60 * 60 * 100);\n\n    //         finalAmount.add(interest);\n    //         finalAmount.add(principalValue);\n\n    //         return finalAmount;\n    //     }\n    // }\n\n    function loanPaid(uint256 _loanId) public {\n        potential_lenders[_loanId].state = LoanState.REPAID;\n    }\n}\n",
  "sourcePath": "/home/adhiraj/DASS2K22-Team-8/App/frontend/src/contracts/Lending.sol",
  "compiler": {
    "name": "solc",
    "version": "0.8.13+commit.abaa5c0e.Emscripten.clang"
  },
  "schemaVersion": "3.4.7",
  "updatedAt": "2022-04-21T21:34:04.271Z",
  "networkType": "ethereum",
  "devdoc": {
    "kind": "dev",
    "methods": {},
    "version": 1
  },
  "userdoc": {
    "kind": "user",
    "methods": {},
    "version": 1
  }
}