{
  "contractName": "Mortgage",
  "abi": [
    {
      "inputs": [],
      "stateMutability": "nonpayable",
      "type": "constructor"
    },
    {
      "inputs": [],
      "name": "borrower",
      "outputs": [
        {
          "internalType": "address",
          "name": "",
          "type": "address"
        }
      ],
      "stateMutability": "view",
      "type": "function"
    },
    {
      "inputs": [
        {
          "internalType": "address",
          "name": "",
          "type": "address"
        }
      ],
      "name": "borrowerToMortgage",
      "outputs": [
        {
          "internalType": "string",
          "name": "",
          "type": "string"
        }
      ],
      "stateMutability": "view",
      "type": "function"
    },
    {
      "inputs": [
        {
          "internalType": "string",
          "name": "",
          "type": "string"
        }
      ],
      "name": "mortgageToBorrower",
      "outputs": [
        {
          "internalType": "address",
          "name": "",
          "type": "address"
        }
      ],
      "stateMutability": "view",
      "type": "function"
    },
    {
      "inputs": [
        {
          "internalType": "string",
          "name": "document",
          "type": "string"
        }
      ],
      "name": "addMortgage",
      "outputs": [],
      "stateMutability": "nonpayable",
      "type": "function"
    }
  ],
  "bytecode": "0x608060405234801561001057600080fd5b50336000806101000a81548173ffffffffffffffffffffffffffffffffffffffff021916908373ffffffffffffffffffffffffffffffffffffffff16021790555061073a806100606000396000f3fe608060405234801561001057600080fd5b506004361061004c5760003560e01c80631d99f098146100515780637df1f1b91461006d578063cdfec14a1461008b578063e74d3964146100bb575b600080fd5b61006b600480360381019061006691906104a9565b6100eb565b005b61007561019f565b6040516100829190610533565b60405180910390f35b6100a560048036038101906100a091906104a9565b6101c3565b6040516100b29190610533565b60405180910390f35b6100d560048036038101906100d0919061057a565b61020c565b6040516100e2919061062f565b60405180910390f35b336001826040516100fc919061068d565b908152602001604051809103902060006101000a81548173ffffffffffffffffffffffffffffffffffffffff021916908373ffffffffffffffffffffffffffffffffffffffff16021790555080600260003373ffffffffffffffffffffffffffffffffffffffff1673ffffffffffffffffffffffffffffffffffffffff168152602001908152602001600020908051906020019061019b9291906102ac565b5050565b60008054906101000a900473ffffffffffffffffffffffffffffffffffffffff1681565b6001818051602081018201805184825260208301602085012081835280955050505050506000915054906101000a900473ffffffffffffffffffffffffffffffffffffffff1681565b6002602052806000526040600020600091509050805461022b906106d3565b80601f0160208091040260200160405190810160405280929190818152602001828054610257906106d3565b80156102a45780601f10610279576101008083540402835291602001916102a4565b820191906000526020600020905b81548152906001019060200180831161028757829003601f168201915b505050505081565b8280546102b8906106d3565b90600052602060002090601f0160209004810192826102da5760008555610321565b82601f106102f357805160ff1916838001178555610321565b82800160010185558215610321579182015b82811115610320578251825591602001919060010190610305565b5b50905061032e9190610332565b5090565b5b8082111561034b576000816000905550600101610333565b5090565b6000604051905090565b600080fd5b600080fd5b600080fd5b600080fd5b6000601f19601f8301169050919050565b7f4e487b7100000000000000000000000000000000000000000000000000000000600052604160045260246000fd5b6103b68261036d565b810181811067ffffffffffffffff821117156103d5576103d461037e565b5b80604052505050565b60006103e861034f565b90506103f482826103ad565b919050565b600067ffffffffffffffff8211156104145761041361037e565b5b61041d8261036d565b9050602081019050919050565b82818337600083830152505050565b600061044c610447846103f9565b6103de565b90508281526020810184848401111561046857610467610368565b5b61047384828561042a565b509392505050565b600082601f8301126104905761048f610363565b5b81356104a0848260208601610439565b91505092915050565b6000602082840312156104bf576104be610359565b5b600082013567ffffffffffffffff8111156104dd576104dc61035e565b5b6104e98482850161047b565b91505092915050565b600073ffffffffffffffffffffffffffffffffffffffff82169050919050565b600061051d826104f2565b9050919050565b61052d81610512565b82525050565b60006020820190506105486000830184610524565b92915050565b61055781610512565b811461056257600080fd5b50565b6000813590506105748161054e565b92915050565b6000602082840312156105905761058f610359565b5b600061059e84828501610565565b91505092915050565b600081519050919050565b600082825260208201905092915050565b60005b838110156105e15780820151818401526020810190506105c6565b838111156105f0576000848401525b50505050565b6000610601826105a7565b61060b81856105b2565b935061061b8185602086016105c3565b6106248161036d565b840191505092915050565b6000602082019050818103600083015261064981846105f6565b905092915050565b600081905092915050565b6000610667826105a7565b6106718185610651565b93506106818185602086016105c3565b80840191505092915050565b6000610699828461065c565b915081905092915050565b7f4e487b7100000000000000000000000000000000000000000000000000000000600052602260045260246000fd5b600060028204905060018216806106eb57607f821691505b6020821081036106fe576106fd6106a4565b5b5091905056fea26469706673582212205b9fec01b7c461c61f10600f83c9b875ed3160160e8ac7e37c273e122b7e1b8664736f6c634300080d0033",
  "immutableReferences": {},
  "source": "// SPDX-License-Identifier: MIT\npragma solidity ^0.8.0;\npragma abicoder v2;\n\ncontract Mortgage {\n  address public borrower;\n\n  mapping (string=>address) public mortgageToBorrower;\n  mapping (address=>string) public borrowerToMortgage;\n\n  constructor() {\n      borrower = msg.sender;\n  }\n  \n  function addMortgage(string memory document) public {\n    mortgageToBorrower[document] = msg.sender;\n    borrowerToMortgage[msg.sender] = document;\n  }\n}",
  "sourcePath": "/home/adhiraj/DASS2K22-Team-8/App/frontend/src/contracts/Mortgage.sol",
  "compiler": {
    "name": "solc",
    "version": "0.8.13+commit.abaa5c0e.Emscripten.clang"
  },
  "schemaVersion": "3.4.7",
  "updatedAt": "2022-04-21T21:30:30.653Z",
  "devdoc": {
    "kind": "dev",
    "methods": {},
    "version": 1
  },
  "userdoc": {
    "kind": "user",
    "methods": {},
    "version": 1
  }
}