{
  "contractName": "Lending",
  "abi": [
    {
      "inputs": [
        {
          "internalType": "uint256",
          "name": "",
          "type": "uint256"
        }
      ],
      "name": "loanToLender",
      "outputs": [
        {
          "internalType": "address",
          "name": "",
          "type": "address"
        }
      ],
      "stateMutability": "view",
      "type": "function",
      "constant": true
    },
    {
      "inputs": [
        {
          "internalType": "uint256",
          "name": "",
          "type": "uint256"
        }
      ],
      "name": "loans",
      "outputs": [
        {
          "internalType": "uint256",
          "name": "loanId",
          "type": "uint256"
        },
        {
          "internalType": "address",
          "name": "lender",
          "type": "address"
        },
        {
          "internalType": "uint256",
          "name": "loanAmount",
          "type": "uint256"
        },
        {
          "internalType": "uint256",
          "name": "interestRate",
          "type": "uint256"
        },
        {
          "internalType": "uint256",
          "name": "proposalId",
          "type": "uint256"
        },
        {
          "internalType": "uint256",
          "name": "time",
          "type": "uint256"
        },
        {
          "internalType": "enum Lending.LoanState",
          "name": "state",
          "type": "uint8"
        }
      ],
      "stateMutability": "view",
      "type": "function",
      "constant": true
    },
    {
      "inputs": [
        {
          "internalType": "uint256",
          "name": "",
          "type": "uint256"
        }
      ],
      "name": "potential_lenders",
      "outputs": [
        {
          "internalType": "uint256",
          "name": "loanId",
          "type": "uint256"
        },
        {
          "internalType": "address",
          "name": "lender",
          "type": "address"
        },
        {
          "internalType": "uint256",
          "name": "loanAmount",
          "type": "uint256"
        },
        {
          "internalType": "uint256",
          "name": "interestRate",
          "type": "uint256"
        },
        {
          "internalType": "uint256",
          "name": "proposalId",
          "type": "uint256"
        },
        {
          "internalType": "uint256",
          "name": "time",
          "type": "uint256"
        },
        {
          "internalType": "enum Lending.LoanState",
          "name": "state",
          "type": "uint8"
        }
      ],
      "stateMutability": "view",
      "type": "function",
      "constant": true
    },
    {
      "inputs": [
        {
          "internalType": "uint256",
          "name": "",
          "type": "uint256"
        }
      ],
      "name": "proposalToBorrower",
      "outputs": [
        {
          "internalType": "address",
          "name": "",
          "type": "address"
        }
      ],
      "stateMutability": "view",
      "type": "function",
      "constant": true
    },
    {
      "inputs": [
        {
          "internalType": "uint256",
          "name": "",
          "type": "uint256"
        }
      ],
      "name": "proposals",
      "outputs": [
        {
          "internalType": "uint256",
          "name": "proposalId",
          "type": "uint256"
        },
        {
          "internalType": "address",
          "name": "borrower",
          "type": "address"
        },
        {
          "internalType": "uint256",
          "name": "amount",
          "type": "uint256"
        },
        {
          "internalType": "uint256",
          "name": "time",
          "type": "uint256"
        },
        {
          "internalType": "string",
          "name": "proposal_text",
          "type": "string"
        },
        {
          "internalType": "string",
          "name": "mortgage",
          "type": "string"
        },
        {
          "internalType": "enum Lending.ProposalState",
          "name": "state",
          "type": "uint8"
        },
        {
          "internalType": "bool",
          "name": "sendMoney",
          "type": "bool"
        }
      ],
      "stateMutability": "view",
      "type": "function",
      "constant": true
    },
    {
      "inputs": [
        {
          "internalType": "uint256",
          "name": "_loanAmount",
          "type": "uint256"
        },
        {
          "internalType": "uint256",
          "name": "_time",
          "type": "uint256"
        },
        {
          "internalType": "string",
          "name": "_proposal_text",
          "type": "string"
        },
        {
          "internalType": "string",
          "name": "_mortgage",
          "type": "string"
        }
      ],
      "name": "createProposal",
      "outputs": [],
      "stateMutability": "nonpayable",
      "type": "function"
    },
    {
      "inputs": [
        {
          "internalType": "uint256",
          "name": "_loanAmount",
          "type": "uint256"
        },
        {
          "internalType": "uint256",
          "name": "_interestRate",
          "type": "uint256"
        },
        {
          "internalType": "uint256",
          "name": "_proposalId",
          "type": "uint256"
        }
      ],
      "name": "acceptProposal",
      "outputs": [],
      "stateMutability": "nonpayable",
      "type": "function"
    },
    {
      "inputs": [],
      "name": "sendETHtoContract",
      "outputs": [],
      "stateMutability": "payable",
      "type": "function",
      "payable": true
    },
    {
      "inputs": [],
      "name": "getAllPotentialLenders",
      "outputs": [
        {
          "components": [
            {
              "internalType": "uint256",
              "name": "loanId",
              "type": "uint256"
            },
            {
              "internalType": "address",
              "name": "lender",
              "type": "address"
            },
            {
              "internalType": "uint256",
              "name": "loanAmount",
              "type": "uint256"
            },
            {
              "internalType": "uint256",
              "name": "interestRate",
              "type": "uint256"
            },
            {
              "internalType": "uint256",
              "name": "proposalId",
              "type": "uint256"
            },
            {
              "internalType": "uint256",
              "name": "time",
              "type": "uint256"
            },
            {
              "internalType": "enum Lending.LoanState",
              "name": "state",
              "type": "uint8"
            }
          ],
          "internalType": "struct Lending.Loan[]",
          "name": "",
          "type": "tuple[]"
        }
      ],
      "stateMutability": "view",
      "type": "function",
      "constant": true
    },
    {
      "inputs": [],
      "name": "getAllProposals",
      "outputs": [
        {
          "components": [
            {
              "internalType": "uint256",
              "name": "proposalId",
              "type": "uint256"
            },
            {
              "internalType": "address",
              "name": "borrower",
              "type": "address"
            },
            {
              "internalType": "uint256",
              "name": "amount",
              "type": "uint256"
            },
            {
              "internalType": "uint256",
              "name": "time",
              "type": "uint256"
            },
            {
              "internalType": "string",
              "name": "proposal_text",
              "type": "string"
            },
            {
              "internalType": "string",
              "name": "mortgage",
              "type": "string"
            },
            {
              "internalType": "enum Lending.ProposalState",
              "name": "state",
              "type": "uint8"
            },
            {
              "internalType": "bool",
              "name": "sendMoney",
              "type": "bool"
            }
          ],
          "internalType": "struct Lending.Proposal[]",
          "name": "",
          "type": "tuple[]"
        }
      ],
      "stateMutability": "view",
      "type": "function",
      "constant": true
    },
    {
      "inputs": [],
      "name": "getAllLoans",
      "outputs": [
        {
          "components": [
            {
              "internalType": "uint256",
              "name": "loanId",
              "type": "uint256"
            },
            {
              "internalType": "address",
              "name": "lender",
              "type": "address"
            },
            {
              "internalType": "uint256",
              "name": "loanAmount",
              "type": "uint256"
            },
            {
              "internalType": "uint256",
              "name": "interestRate",
              "type": "uint256"
            },
            {
              "internalType": "uint256",
              "name": "proposalId",
              "type": "uint256"
            },
            {
              "internalType": "uint256",
              "name": "time",
              "type": "uint256"
            },
            {
              "internalType": "enum Lending.LoanState",
              "name": "state",
              "type": "uint8"
            }
          ],
          "internalType": "struct Lending.Loan[]",
          "name": "",
          "type": "tuple[]"
        }
      ],
      "stateMutability": "view",
      "type": "function",
      "constant": true
    },
    {
      "inputs": [
        {
          "internalType": "uint256",
          "name": "_loanId",
          "type": "uint256"
        },
        {
          "internalType": "uint256",
          "name": "_proposalId",
          "type": "uint256"
        }
      ],
      "name": "acceptLender",
      "outputs": [],
      "stateMutability": "nonpayable",
      "type": "function"
    },
    {
      "inputs": [
        {
          "internalType": "uint256",
          "name": "_loanId",
          "type": "uint256"
        }
      ],
      "name": "loanPaid",
      "outputs": [],
      "stateMutability": "nonpayable",
      "type": "function"
    }
  ],
  "bytecode": "0x608060405234801561001057600080fd5b50611c24806100206000396000f3fe6080604052600436106100c25760003560e01c8063a5bfd16a1161007f578063c54f3eae11610059578063c54f3eae1461027a578063cceb68f5146102a3578063d2957f6b146102ce578063e1ec3c68146102f7576100c2565b8063a5bfd16a146101e9578063b99c56c514610214578063bc254c0014610251576100c2565b80630133e1d8146100c7578063013cf08b146100f0578063424959371461013457806346df13471461013e5780637028122d146101815780639dfe47cd146101be575b600080fd5b3480156100d357600080fd5b506100ee60048036038101906100e99190611263565b61033a565b005b3480156100fc57600080fd5b50610117600480360381019061011291906112b6565b61051c565b60405161012b98979695949392919061145e565b60405180910390f35b61013c6106be565b005b34801561014a57600080fd5b50610165600480360381019061016091906112b6565b6106c0565b6040516101789796959493929190611532565b60405180910390f35b34801561018d57600080fd5b506101a860048036038101906101a391906112b6565b61073f565b6040516101b591906115a1565b60405180910390f35b3480156101ca57600080fd5b506101d3610772565b6040516101e09190611726565b60405180910390f35b3480156101f557600080fd5b506101fe610894565b60405161020b9190611726565b60405180910390f35b34801561022057600080fd5b5061023b600480360381019061023691906112b6565b6109b6565b60405161024891906115a1565b60405180910390f35b34801561025d57600080fd5b5061027860048036038101906102739190611748565b6109e9565b005b34801561028657600080fd5b506102a1600480360381019061029c91906112b6565b610c75565b005b3480156102af57600080fd5b506102b8610cc6565b6040516102c59190611969565b60405180910390f35b3480156102da57600080fd5b506102f560048036038101906102f09190611ac0565b610f14565b005b34801561030357600080fd5b5061031e600480360381019061031991906112b6565b6110f7565b6040516103319796959493929190611532565b60405180910390f35b6000600180549050905060016040518060e001604052808381526020013373ffffffffffffffffffffffffffffffffffffffff1681526020018681526020018581526020018481526020014281526020016002600481111561039f5761039e6113cc565b5b81525090806001815401808255809150506001900390600052602060002090600702016000909190919091506000820151816000015560208201518160010160006101000a81548173ffffffffffffffffffffffffffffffffffffffff021916908373ffffffffffffffffffffffffffffffffffffffff16021790555060408201518160020155606082015181600301556080820151816004015560a0820151816005015560c08201518160060160006101000a81548160ff0219169083600481111561046f5761046e6113cc565b5b02179055505050336004600083815260200190815260200160002060006101000a81548173ffffffffffffffffffffffffffffffffffffffff021916908373ffffffffffffffffffffffffffffffffffffffff1602179055506001600083815481106104de576104dd611b5f565b5b906000526020600020906007020160060160006101000a81548160ff02191690836002811115610511576105106113cc565b5b021790555050505050565b6000818154811061052c57600080fd5b90600052602060002090600702016000915090508060000154908060010160009054906101000a900473ffffffffffffffffffffffffffffffffffffffff169080600201549080600301549080600401805461058790611bbd565b80601f01602080910402602001604051908101604052809291908181526020018280546105b390611bbd565b80156106005780601f106105d557610100808354040283529160200191610600565b820191906000526020600020905b8154815290600101906020018083116105e357829003601f168201915b50505050509080600501805461061590611bbd565b80601f016020809104026020016040519081016040528092919081815260200182805461064190611bbd565b801561068e5780601f106106635761010080835404028352916020019161068e565b820191906000526020600020905b81548152906001019060200180831161067157829003601f168201915b5050505050908060060160009054906101000a900460ff16908060060160019054906101000a900460ff16905088565b565b600181815481106106d057600080fd5b90600052602060002090600702016000915090508060000154908060010160009054906101000a900473ffffffffffffffffffffffffffffffffffffffff16908060020154908060030154908060040154908060050154908060060160009054906101000a900460ff16905087565b60046020528060005260406000206000915054906101000a900473ffffffffffffffffffffffffffffffffffffffff1681565b60606001805480602002602001604051908101604052809291908181526020016000905b8282101561088b57838290600052602060002090600702016040518060e0016040529081600082015481526020016001820160009054906101000a900473ffffffffffffffffffffffffffffffffffffffff1673ffffffffffffffffffffffffffffffffffffffff1673ffffffffffffffffffffffffffffffffffffffff168152602001600282015481526020016003820154815260200160048201548152602001600582015481526020016006820160009054906101000a900460ff166004811115610866576108656113cc565b5b6004811115610878576108776113cc565b5b8152505081526020019060010190610796565b50505050905090565b60606002805480602002602001604051908101604052809291908181526020016000905b828210156109ad57838290600052602060002090600702016040518060e0016040529081600082015481526020016001820160009054906101000a900473ffffffffffffffffffffffffffffffffffffffff1673ffffffffffffffffffffffffffffffffffffffff1673ffffffffffffffffffffffffffffffffffffffff168152602001600282015481526020016003820154815260200160048201548152602001600582015481526020016006820160009054906101000a900460ff166004811115610988576109876113cc565b5b600481111561099a576109996113cc565b5b81525050815260200190600101906108b8565b50505050905090565b60036020528060005260406000206000915054906101000a900473ffffffffffffffffffffffffffffffffffffffff1681565b60026040518060e001604052808481526020016004600086815260200190815260200160002060009054906101000a900473ffffffffffffffffffffffffffffffffffffffff1673ffffffffffffffffffffffffffffffffffffffff16815260200160018581548110610a5f57610a5e611b5f565b5b906000526020600020906007020160020154815260200160018581548110610a8a57610a89611b5f565b5b906000526020600020906007020160030154815260200183815260200142815260200160036004811115610ac157610ac06113cc565b5b81525090806001815401808255809150506001900390600052602060002090600702016000909190919091506000820151816000015560208201518160010160006101000a81548173ffffffffffffffffffffffffffffffffffffffff021916908373ffffffffffffffffffffffffffffffffffffffff16021790555060408201518160020155606082015181600301556080820151816004015560a0820151816005015560c08201518160060160006101000a81548160ff02191690836004811115610b9157610b906113cc565b5b021790555050506000808281548110610bad57610bac611b5f565b5b906000526020600020906007020160060160006101000a81548160ff02191690836002811115610be057610bdf6113cc565b5b0217905550600360018381548110610bfb57610bfa611b5f565b5b906000526020600020906007020160060160006101000a81548160ff02191690836004811115610c2e57610c2d6113cc565b5b0217905550600160008281548110610c4957610c48611b5f565b5b906000526020600020906007020160060160016101000a81548160ff0219169083151502179055505050565b600060018281548110610c8b57610c8a611b5f565b5b906000526020600020906007020160060160006101000a81548160ff02191690836004811115610cbe57610cbd6113cc565b5b021790555050565b60606000805480602002602001604051908101604052809291908181526020016000905b82821015610f0b578382906000526020600020906007020160405180610100016040529081600082015481526020016001820160009054906101000a900473ffffffffffffffffffffffffffffffffffffffff1673ffffffffffffffffffffffffffffffffffffffff1673ffffffffffffffffffffffffffffffffffffffff1681526020016002820154815260200160038201548152602001600482018054610d9290611bbd565b80601f0160208091040260200160405190810160405280929190818152602001828054610dbe90611bbd565b8015610e0b5780601f10610de057610100808354040283529160200191610e0b565b820191906000526020600020905b815481529060010190602001808311610dee57829003601f168201915b50505050508152602001600582018054610e2490611bbd565b80601f0160208091040260200160405190810160405280929190818152602001828054610e5090611bbd565b8015610e9d5780601f10610e7257610100808354040283529160200191610e9d565b820191906000526020600020905b815481529060010190602001808311610e8057829003601f168201915b505050505081526020016006820160009054906101000a900460ff166002811115610ecb57610eca6113cc565b5b6002811115610edd57610edc6113cc565b5b81526020016006820160019054906101000a900460ff16151515158152505081526020019060010190610cea565b50505050905090565b60008080549050905060006040518061010001604052808381526020013373ffffffffffffffffffffffffffffffffffffffff168152602001878152602001868152602001858152602001848152602001600280811115610f7857610f776113cc565b5b81526020016000151581525090806001815401808255809150506001900390600052602060002090600702016000909190919091506000820151816000015560208201518160010160006101000a81548173ffffffffffffffffffffffffffffffffffffffff021916908373ffffffffffffffffffffffffffffffffffffffff1602179055506040820151816002015560608201518160030155608082015181600401908051906020019061102e929190611176565b5060a082015181600501908051906020019061104b929190611176565b5060c08201518160060160006101000a81548160ff02191690836002811115611077576110766113cc565b5b021790555060e08201518160060160016101000a81548160ff0219169083151502179055505050336003600083815260200190815260200160002060006101000a81548173ffffffffffffffffffffffffffffffffffffffff021916908373ffffffffffffffffffffffffffffffffffffffff1602179055505050505050565b6002818154811061110757600080fd5b90600052602060002090600702016000915090508060000154908060010160009054906101000a900473ffffffffffffffffffffffffffffffffffffffff16908060020154908060030154908060040154908060050154908060060160009054906101000a900460ff16905087565b82805461118290611bbd565b90600052602060002090601f0160209004810192826111a457600085556111eb565b82601f106111bd57805160ff19168380011785556111eb565b828001600101855582156111eb579182015b828111156111ea5782518255916020019190600101906111cf565b5b5090506111f891906111fc565b5090565b5b808211156112155760008160009055506001016111fd565b5090565b6000604051905090565b600080fd5b600080fd5b6000819050919050565b6112408161122d565b811461124b57600080fd5b50565b60008135905061125d81611237565b92915050565b60008060006060848603121561127c5761127b611223565b5b600061128a8682870161124e565b935050602061129b8682870161124e565b92505060406112ac8682870161124e565b9150509250925092565b6000602082840312156112cc576112cb611223565b5b60006112da8482850161124e565b91505092915050565b6112ec8161122d565b82525050565b600073ffffffffffffffffffffffffffffffffffffffff82169050919050565b600061131d826112f2565b9050919050565b61132d81611312565b82525050565b600081519050919050565b600082825260208201905092915050565b60005b8381101561136d578082015181840152602081019050611352565b8381111561137c576000848401525b50505050565b6000601f19601f8301169050919050565b600061139e82611333565b6113a8818561133e565b93506113b881856020860161134f565b6113c181611382565b840191505092915050565b7f4e487b7100000000000000000000000000000000000000000000000000000000600052602160045260246000fd5b6003811061140c5761140b6113cc565b5b50565b600081905061141d826113fb565b919050565b600061142d8261140f565b9050919050565b61143d81611422565b82525050565b60008115159050919050565b61145881611443565b82525050565b600061010082019050611474600083018b6112e3565b611481602083018a611324565b61148e60408301896112e3565b61149b60608301886112e3565b81810360808301526114ad8187611393565b905081810360a08301526114c18186611393565b90506114d060c0830185611434565b6114dd60e083018461144f565b9998505050505050505050565b600581106114fb576114fa6113cc565b5b50565b600081905061150c826114ea565b919050565b600061151c826114fe565b9050919050565b61152c81611511565b82525050565b600060e082019050611547600083018a6112e3565b6115546020830189611324565b61156160408301886112e3565b61156e60608301876112e3565b61157b60808301866112e3565b61158860a08301856112e3565b61159560c0830184611523565b98975050505050505050565b60006020820190506115b66000830184611324565b92915050565b600081519050919050565b600082825260208201905092915050565b6000819050602082019050919050565b6115f18161122d565b82525050565b61160081611312565b82525050565b61160f81611511565b82525050565b60e08201600082015161162b60008501826115e8565b50602082015161163e60208501826115f7565b50604082015161165160408501826115e8565b50606082015161166460608501826115e8565b50608082015161167760808501826115e8565b5060a082015161168a60a08501826115e8565b5060c082015161169d60c0850182611606565b50505050565b60006116af8383611615565b60e08301905092915050565b6000602082019050919050565b60006116d3826115bc565b6116dd81856115c7565b93506116e8836115d8565b8060005b8381101561171957815161170088826116a3565b975061170b836116bb565b9250506001810190506116ec565b5085935050505092915050565b6000602082019050818103600083015261174081846116c8565b905092915050565b6000806040838503121561175f5761175e611223565b5b600061176d8582860161124e565b925050602061177e8582860161124e565b9150509250929050565b600081519050919050565b600082825260208201905092915050565b6000819050602082019050919050565b600082825260208201905092915050565b60006117d082611333565b6117da81856117b4565b93506117ea81856020860161134f565b6117f381611382565b840191505092915050565b61180781611422565b82525050565b61181681611443565b82525050565b60006101008301600083015161183560008601826115e8565b50602083015161184860208601826115f7565b50604083015161185b60408601826115e8565b50606083015161186e60608601826115e8565b506080830151848203608086015261188682826117c5565b91505060a083015184820360a08601526118a082826117c5565b91505060c08301516118b560c08601826117fe565b5060e08301516118c860e086018261180d565b508091505092915050565b60006118df838361181c565b905092915050565b6000602082019050919050565b60006118ff82611788565b6119098185611793565b93508360208202850161191b856117a4565b8060005b85811015611957578484038952815161193885826118d3565b9450611943836118e7565b925060208a0199505060018101905061191f565b50829750879550505050505092915050565b6000602082019050818103600083015261198381846118f4565b905092915050565b600080fd5b600080fd5b7f4e487b7100000000000000000000000000000000000000000000000000000000600052604160045260246000fd5b6119cd82611382565b810181811067ffffffffffffffff821117156119ec576119eb611995565b5b80604052505050565b60006119ff611219565b9050611a0b82826119c4565b919050565b600067ffffffffffffffff821115611a2b57611a2a611995565b5b611a3482611382565b9050602081019050919050565b82818337600083830152505050565b6000611a63611a5e84611a10565b6119f5565b905082815260208101848484011115611a7f57611a7e611990565b5b611a8a848285611a41565b509392505050565b600082601f830112611aa757611aa661198b565b5b8135611ab7848260208601611a50565b91505092915050565b60008060008060808587031215611ada57611ad9611223565b5b6000611ae88782880161124e565b9450506020611af98782880161124e565b935050604085013567ffffffffffffffff811115611b1a57611b19611228565b5b611b2687828801611a92565b925050606085013567ffffffffffffffff811115611b4757611b46611228565b5b611b5387828801611a92565b91505092959194509250565b7f4e487b7100000000000000000000000000000000000000000000000000000000600052603260045260246000fd5b7f4e487b7100000000000000000000000000000000000000000000000000000000600052602260045260246000fd5b60006002820490506001821680611bd557607f821691505b602082108103611be857611be7611b8e565b5b5091905056fea2646970667358221220701145832647768d8ffb96be9909369e60ebd2388ab7ce1799842d90938d41fc64736f6c634300080d0033",
  "immutableReferences": {},
  "source": "// SPDX-License-Identifier: MIT\npragma solidity ^0.8.0;\npragma abicoder v2;\n\nimport \"./SafeMath.sol\";\n\ncontract Lending {\n    using SafeMath for uint256;\n    using SafeMath for uint256;\n\n    enum ProposalState {\n        ACCEPTED,\n        ACCEPTING,\n        WAITING\n    }\n    enum LoanState {\n        REPAID,\n        ACCEPTED,\n        WAITING,\n        PAID,\n        FAILED\n    }\n\n    // borrower\n    struct Proposal {\n        uint256 proposalId;\n        address borrower;\n        uint256 amount;\n        uint256 time;\n        string proposal_text;\n        string mortgage;\n        ProposalState state;\n        bool sendMoney;\n    }\n\n    struct Loan {\n        uint256 loanId;\n        address lender;\n        uint256 loanAmount;\n        uint256 interestRate;\n        uint256 proposalId; // not sure?\n        uint256 time;\n        LoanState state;\n    }\n\n    Proposal[] public proposals; // all proposals\n    Loan[] public potential_lenders; // lender options\n    Loan[] public loans; // confirmed loans\n\n    mapping(uint256 => address) public proposalToBorrower; // key -> value mapping\n    mapping(uint256 => address) public loanToLender; // key -> value mapping\n\n    function createProposal(\n        uint256 _loanAmount,\n        uint256 _time,\n        string memory _proposal_text,\n        string memory _mortgage\n    ) public {\n        //change loanAmount to amount?\n        uint256 _proposalId = proposals.length;\n        proposals.push(\n            Proposal(\n                _proposalId,\n                msg.sender,\n                _loanAmount,\n                _time,\n                _proposal_text,\n                _mortgage,\n                ProposalState.WAITING,\n                false\n            )\n        );\n\n        proposalToBorrower[_proposalId] = msg.sender;\n    }\n\n    function acceptProposal(\n        uint256 _loanAmount,\n        uint256 _interestRate,\n        uint256 _proposalId\n    ) public {\n        uint256 _loanId = potential_lenders.length;\n        potential_lenders.push(\n            Loan(\n                _loanId,\n                msg.sender,\n                _loanAmount,\n                _interestRate,\n                _proposalId,\n                block.timestamp,\n                LoanState.WAITING\n            )\n        );\n        loanToLender[_loanId] = msg.sender;\n        proposals[_proposalId].state = ProposalState.ACCEPTING;\n    }\n\n    function sendETHtoContract() public payable {\n        //msg.value is the amount of wei that the msg.sender sent with this transaction.\n        //If the transaction doesn't fail, then the contract now has this ETH.\n    }\n\n    function getAllPotentialLenders() public view returns (Loan[] memory) {\n        return potential_lenders;\n    }\n\n    function getAllProposals() public view returns (Proposal[] memory) {\n        return proposals;\n    }\n\n    function getAllLoans() public view returns (Loan[] memory) {\n        return loans;\n    }\n\n    function acceptLender(uint256 _loanId, uint256 _proposalId) public {\n        loans.push(\n            Loan(\n                _loanId,\n                loanToLender[_loanId],\n                potential_lenders[_loanId].loanAmount,\n                potential_lenders[_loanId].interestRate,\n                _proposalId,\n                block.timestamp,\n                LoanState.PAID\n            )\n        );\n\n        proposals[_proposalId].state = ProposalState.ACCEPTED;\n\n        potential_lenders[_loanId].state = LoanState.PAID;\n\n        proposals[_proposalId].sendMoney = true;\n\n        // (bool success, ) = msg.sender.call.value(\n        //     potential_lenders[_loanId].loanAmount\n        // )(\"\");\n        // require(success, \"Transfer failed.\");\n    }\n\n    // function repayAmount(uint256 _loanId) public view returns (uint256) {\n    //     if (loans[_loanId].state == LoanState.ACCEPTED) {\n    //         uint256 startTime = loans[_loanId].time;\n    //         uint256 finalAmount = 0;\n    //         uint256 principalValue = loans[_loanId].loanAmount;\n    //         uint256 paymentTime = block.timestamp;\n    //         uint256 interestRate = loans[_loanId].interestRate;\n    //         uint256 loanTime = paymentTime - startTime;\n\n    //         uint256 interest = (\n    //             principalValue.mul(interestRate).mul(loanTime)\n    //         ) / (365 * 24 * 60 * 60 * 100);\n\n    //         finalAmount.add(interest);\n    //         finalAmount.add(principalValue);\n\n    //         return finalAmount;\n    //     }\n    // }\n\n    function loanPaid(uint256 _loanId) public {\n        potential_lenders[_loanId].state = LoanState.REPAID;\n    }\n}\n",
  "sourcePath": "/home/adhiraj/DASS2K22-Team-8/App/contracts/Lending.sol",
  "compiler": {
    "name": "solc",
    "version": "0.8.13+commit.abaa5c0e.Emscripten.clang"
  },
  "schemaVersion": "3.4.7",
  "updatedAt": "2022-04-24T06:26:28.824Z",
  "networkType": "ethereum",
  "devdoc": {
    "kind": "dev",
    "methods": {},
    "version": 1
  },
  "userdoc": {
    "kind": "user",
    "methods": {},
    "version": 1
  }
}